S016000054726166666963204C69676874732E73726563C4
S11300000C942A000C94C2010C9447000C944700F1
S11300100C9447000C9447000C9447000C94470040
S11300200C9447000C9447000C9447000C94470030
S11300300C9447000C9447000C9447000C94470020
S11300400C9447000C9447000C9447000C94470010
S11300500C94470011241FBECFE5D8E0DEBFCDBF0E
S113006010E0A0E6B0E0E2E5F0E102C005900D92F8
S1130070A236B107D9F720E0A2E6B0E001C01D9294
S1130080A536B207E1F70E9444020C9427080C94A9
S11300900000CF93DF93CDB7DEB70E94AD0461E4D7
S11300A080E00E94EC0161E481E00E94EC0161E4E3
S11300B082E00E94EC0162E480E00E94EC0162E4D0
S11300C081E00E94EC0162E482E00E94EC0164E4BD
S11300D082E00E94DA010000DF91CF910895CF936E
S11300E0DF93CDB7DEB728970FB6F894DEBF0FBE07
S11300F0CDBF80916200882309F099C0809164008B
S1130100882F90E08130910561F18230910509F4E6
S113011067C0892B09F0B4C061E480E00E94FE014D
S11301201A8219820DC081E390E00E94330280910B
S11301306200813059F089819A8101969A8389837A
S113014089819A818436910574F301C0000061E4C9
S113015080E00E9410021092630081E080936400AA
S11301608FC061E481E00E94FE011C821B8222C0D8
S11301701E821D8212C081E390E00E9433028091AE
S11301806200813029F48AE090E09C838B8309C06B
S11301908D819E8101969E838D838D819E810A9798
S11301A054F361E481E00E9422028B819C810196D8
S11301B09C838B838B819C810A97D4F261E481E0D8
S11301C00E94100280916300882321F482E08093CE
S11301D0640002C01092640081E08093630050C008
S11301E061E482E00E94FE0118861F820DC081E353
S11301F090E00E94330280916200813059F08F8137
S11302009885019698878F838F8198858436910588
S113021074F301C0000061E482E00E94100282E0F5
S11302208093630081E080936400000029C0809182
S11302306300882F90E099231CF18230910584F0AB
S11302400297F1F40E9457010E9473010E94A601D3
S11302501092630081E0809364001092600010C0EB
S11302600E9473010E9457010E9473010E94A6011B
S11302701092630081E0809364001092600000009B
S113028080916200813049F480916000882329F4D0
S11302901092620081E080936000000028960FB6FF
S11302A0F894DEBF0FBECDBFDF91CF910895CF93F9
S11302B0DF93CDB7DEB762E480E00E94FE0161E423
S11302C082E00E94FE0184E293E10E94330262E430
S11302D080E00E94100261E482E00E9410020000AB
S11302E0DF91CF910895CF93DF9300D0CDB7DEB7E0
S11302F061E481E00E94FE0162E481E00E94FE016B
S11303001A82198211C08AEE91E00E94330261E4DC
S113031081E00E94220262E481E00E94220289813B
S11303209A8101969A83898389819A810A975CF3D9
S113033061E481E00E94100262E481E00E94100204
S113034000000F900F90DF91CF910895CF93DF932A
S1130350CDB7DEB762E482E00E94FE0161E480E092
S11303600E94FE0184E293E10E94330262E482E08F
S11303700E94100261E480E00E9410020000DF91FC
S1130380CF9108951F920F9200905F000F92112455
S11303908F93CF93DF93CDB7DEB781E08093620074
S11303A00000DF91CF918F910F9000925F000F902A
S11303B01F901895CF93DF9300D0CDB7DEB7898314
S11303C06A8340E06A8189810E944D0200000F9097
S11303D00F90DF91CF910895CF93DF9300D0CDB7E5
S11303E0DEB789836A8341E06A8189810E944D0274
S11303F000000F900F90DF91CF910895CF93DF937A
S113040000D0CDB7DEB789836A8341E06A818981F0
S11304100E94420300000F900F90DF91CF91089546
S1130420CF93DF9300D0CDB7DEB789836A8340E0F2
S11304306A8189810E94420300000F900F90DF912E
S1130440CF910895CF93DF9300D0CDB7DEB78983E2
S11304506A836A8189810E94370400000F900F909B
S1130460DF91CF910895CF93DF9300D0CDB7DEB75E
S11304709A83898389819A810E94C80400000F901D
S11304800F90DF91CF910895CF93DF93CDB7DEB76F
S11304900E9449000E946F00FDCFCF93DF9300D0EC
S11304A01F92CDB7DEB789836A834B838A81882FF5
S11304B090E08234910509F442C08334910524F418
S11304C08134910551F0D7C08334910509F469C092
S11304D08434910509F497C0CEC08B818823B1F48C
S11304E08AE390E02AE330E0F9012081622F298138
S11304F0422F50E021E030E002C0220F331F4A9522
S1130500E2F720952623FC012083AEC08B81813045
S113051009F0AAC08AE390E02AE330E0F9012081DF
S1130520622F2981422F50E021E030E002C0220FE7
S1130530331F4A95E2F7262BFC01208395C08B815B
S11305408823B1F487E390E027E330E0F9012081C8
S1130550622F2981422F50E021E030E002C0220FB7
S1130560331F4A95E2F720952623FC0120837EC0A1
S11305708B81813009F07AC087E390E027E330E093
S1130580F9012081622F2981422F50E021E030E0DF
S113059002C0220F331F4A95E2F7262BFC01208369
S11305A065C08B818823B1F484E390E024E330E0D8
S11305B0F9012081622F2981422F50E021E030E0AF
S11305C002C0220F331F4A95E2F720952623FC012F
S11305D020834EC08B81813009F04AC084E390E0CF
S11305E024E330E0F9012081622F2981422F50E079
S11305F021E030E002C0220F331F4A95E2F7262B98
S1130600FC01208335C08B818823B1F481E390E021
S113061021E330E0F9012081622F2981422F50E04B
S113062021E030E002C0220F331F4A95E2F7209503
S11306302623FC0120831EC08B818130D9F481E301
S113064090E021E330E0F9012081622F2981422FDB
S113065050E021E030E002C0220F331F4A95E2F758
S1130660262BFC01208306C0000005C0000003C047
S1130670000001C0000000000F900F900F90DF9168
S1130680CF910895CF93DF9300D01F92CDB7DEB7FB
S113069089836A834B838A81882F90E08234910511
S11306A009F442C08334910524F48134910551F056
S11306B0D7C08334910509F469C08434910509F4E1
S11306C097C0CEC08B818823B1F48BE390E02BE3F9
S11306D030E0F9012081622F2981422F50E021E08E
S11306E030E002C0220F331F4A95E2F720952623FB
S11306F0FC012083AEC08B81813009F0AAC08BE35A
S113070090E02BE330E0F9012081622F2981422F10
S113071050E021E030E002C0220F331F4A95E2F797
S1130720262BFC01208395C08B818823B1F488E3B8
S113073090E028E330E0F9012081622F2981422FE3
S113074050E021E030E002C0220F331F4A95E2F767
S113075020952623FC0120837EC08B81813009F003
S11307607AC088E390E028E330E0F9012081622F29
S11307702981422F50E021E030E002C0220F331FD4
S11307804A95E2F7262BFC01208365C08B818823E0
S1130790B1F485E390E025E330E0F9012081622F94
S11307A02981422F50E021E030E002C0220F331FA4
S11307B04A95E2F720952623FC0120834EC08B81C5
S11307C0813009F04AC085E390E025E330E0F90187
S11307D02081622F2981422F50E021E030E002C0C5
S11307E0220F331F4A95E2F7262BFC01208335C0E4
S11307F08B818823B1F482E390E022E330E0F901B5
S11308002081622F2981422F50E021E030E002C094
S1130810220F331F4A95E2F720952623FC012083FB
S11308201EC08B818130D9F482E390E022E330E072
S1130830F9012081622F2981422F50E021E030E02C
S113084002C0220F331F4A95E2F7262BFC012083B6
S113085006C0000005C0000003C0000001C0000085
S113086000000F900F900F90DF91CF910895CF93D8
S1130870DF9300D0CDB7DEB789836A838A81882F5E
S113088090E08234910521F18334910524F481347C
S1130890910549F05CC08334910579F18434910564
S11308A009F440C054C08BE390E02BE330E0F9013D
S11308B02081622F2981422F50E021E030E002C0E4
S11308C0220F331F4A95E2F72627FC0120833FC0FD
S11308D088E390E028E330E0F9012081622F298148
S11308E0422F50E021E030E002C0220F331F4A952E
S11308F0E2F72627FC0120832AC085E390E025E364
S113090030E0F9012081622F2981422F50E021E05B
S113091030E002C0220F331F4A95E2F72627FC017C
S1130920208315C082E390E022E330E0F9012081C6
S1130930622F2981422F50E021E030E002C0220FD3
S1130940331F4A95E2F72627FC01208300000000AC
S11309500F900F90DF91CF910895CF93DF93CDB790
S1130960DEB7789485E590E025E530E0F901208153
S11309702360FC0120838BE590E02BE530E0F90156
S113098020812064FC0120830000DF91CF91089531
S1130990CF92DF92EF92FF92CF93DF93CDB7DEB782
S11309A060970FB6F894DEBF0FBECDBF988B8F87CC
S11309B083E590E0FC0110828FE692E1A3E8BFE3B7
S11309C08B839C83AD83BE8320E030E040E853E416
S11309D06B817C818D819E810E949607DC01CB0115
S11309E08F839887A987BA878F859889CC01A0E0DF
S11309F0B0E0BC01CD010E94C706DC01CB012F8110
S1130A00388549855A85BC01CD010E941F06DC0149
S1130A10CB01BC01CD010E940806DC01CB01BC0165
S1130A20CD010E949106DC01CB019C878B878F85C9
S1130A309889CC01A0E0B0E0BC01CD010E94C706BA
S1130A40DC01CB012B813C814D815E81BC01CD0158
S1130A500E941F06DC01CB016C017D018B859C8506
S1130A60092E000CAA0BBB0BBC01CD010E94C906C8
S1130A70DC01CB019C01AD01C701B6010E941F0638
S1130A80DC01CB019C01AD0160E070E080E893E4FF
S1130A900E949B05DC01CB01BC01CD010E9403082F
S1130AA0DC01CB01BC01CD010E949106DC01CB012C
S1130AB09E878D871A82198282E590E02D85FC013C
S1130AC0208383E590E025E0FC01208319C0000029
S1130AD088E590E0FC018081882F90E0817099275F
S1130AE0892BB1F388E590E028E530E0F901208115
S1130AF02160FC01208389819A8101969A838983EC
S1130B0029813A818B859C852817390704F31A8239
S1130B10198283E590E0FC011082000060960FB614
S1130B20F894DEBF0FBECDBFDF91CF91FF90EF9061
S1130B30DF90CF9008955058BB27AA270E94B30591
S1130B400C9444070E94360738F00E943D0720F0B9
S1130B5039F49F3F19F426F40C9433070EF4E0950E
S1130B60E7FB0C940407E92F0E94550758F3BA17C2
S1130B70620773078407950720F079F4A6F50C94AF
S1130B808F070EF4E0950B2EBA2FA02D0B01B9019F
S1130B9090010C01CA01A0011124FF27591B99F0EF
S1130BA0593F50F4503E68F11A16F040A22F232FFB
S1130BB0342F4427585FF3CF469537952795A7954B
S1130BC0F0405395C9F77EF41F16BA0B620B730BF2
S1130BD0840BBAF09150A1F0FF0FBB1F661F771F63
S1130BE0881FC2F70EC0BA0F621F731F841F48F418
S1130BF0879577956795B795F7959E3F08F0B0CFA1
S1130C009395880F08F09927EE0F97958795089587
S1130C100E94770790F09F3748F4911116F40C94D2
S1130C20900760E070E080E89FE3089526F01B16CB
S1130C30611D711D811D0C940A070C9425070E94E7
S1130C4033060C9444070E943D0758F00E9436076F
S1130C5040F029F45F3F29F00C94040751110C94DF
S1130C6090070C9433070E94550768F39923B1F356
S1130C70552391F3951B550BBB27AA2762177307BE
S1130C80840738F09F5F5F4F220F331F441FAA1F52
S1130C90A9F335D00E2E3AF0E0E832D0915050400E
S1130CA0E695001CCAF72BD0FE2F29D0660F771FBC
S1130CB0881FBB1F261737074807AB07B0E809F0A2
S1130CC0BB0B802DBF01FF2793585F4F3AF09E3F27
S1130CD0510578F00C9404070C9490075F3FE4F3FB
S1130CE0983ED4F3869577956795B795F7959F5F6A
S1130CF0C9F7880F911D9695879597F90895E1E0B6
S1130D00660F771F881FBB1F621773078407BA0714
S1130D1020F0621B730B840BBA0BEE1F88F7E0956F
S1130D2008950E9498066894B1110C949007089550
S1130D300E945D0788F09F5798F0B92F9927B75103
S1130D40B0F0E1F0660F771F881F991F1AF0BA956B
S1130D50C9F714C0B13091F00E948F07B1E0089533
S1130D600C948F07672F782F8827B85F39F0B93F25
S1130D70CCF3869577956795B395D9F73EF490951E
S1130D808095709561957F4F8F4F9F4F0895E8949C
S1130D9009C097FB3EF490958095709561957F4FBF
S1130DA08F4F9F4F9923A9F0F92F96E9BB2793956D
S1130DB0F695879577956795B795F111F8CFFAF47D
S1130DC0BB0F11F460FF1BC06F5F7F4F8F4F9F4FAE
S1130DD016C0882311F096E911C0772321F09EE80C
S1130DE0872F762F05C0662371F096E8862F70E072
S1130DF060E02AF09A95660F771F881FDAF7880F4C
S1130E009695879597F9089597F99F6780E870E01C
S1130E1060E00895882371F4772321F09850872B9C
S1130E20762F07C0662311F499270DC09051862BA5
S1130E3070E060E02AF09A95660F771F881FDAF752
S1130E40880F9695879597F908959F3F31F09150B3
S1130E5020F4879577956795B795880F911D96959A
S1130E60879597F908959FEF80EC089500240A94DC
S1130E701616170618060906089500240A94121671
S1130E801306140605060895092E0394000C11F4A4
S1130E90882352F0BB0F40F4BF2B11F460FF04C051
S1130EA06F5F7F4F8F4F9F4F089557FD9058440FAA
S1130EB0551F59F05F3F71F04795880F97FB991FB5
S1130EC061F09F3F79F08795089512161306140672
S1130ED0551FF2CF4695F1DF08C0161617061806FF
S1130EE0991FF1CF869571056105089408950E94B4
S1130EF05D07A0F0BEE7B91788F4BB279F3860F4FC
S1130F001616B11D672F782F8827985FF7CF86951F
S1130F1077956795B11D93959639C8F30895E8942C
S1130F20BB2766277727CB0197F908950E94A90765
S1130F300C9444070E94360738F00E943D0720F0C5
S1130F40952311F00C9404070C94330711240C948A
S1130F5090070E94550770F3959FC1F3950F50E0D9
S1130F60551F629FF001729FBB27F00DB11D639F57
S1130F70AA27F00DB11DAA1F649F6627B00DA11DFD
S1130F80661F829F2227B00DA11D621F739FB00DA3
S1130F90A11D621F839FA00D611D221F749F332713
S1130FA0A00D611D231F849F600D211D822F762FAC
S1130FB06A2F11249F5750409AF0F1F088234AF089
S1130FC0EE0FFF1FBB1F661F771F881F91505040F5
S1130FD0A9F79E3F510580F00C9404070C949007E8
S1130FE05F3FE4F3983ED4F3869577956795B7957C
S1130FF0F795E7959F5FC1F7FE2B880F911D969596
S1131000879597F908950E945D07E8F09E37E8F008
S11310109639B8F49E3848F4672F782F8827985F5C
S1131020F9CF86957795679593959539D0F3B62F33
S1131030B1706B0F711D811D20F4879577956795AD
S113104093950C940A070C9425070C949007F89434
S1051050FFCFCC
S1051052010097
S9030000FC
